{
  "contractName": "ServiceManagement",
  "abi": [
    {
      "anonymous": false,
      "inputs": [
        {
          "indexed": false,
          "internalType": "uint256",
          "name": "serviceId",
          "type": "uint256"
        },
        {
          "indexed": false,
          "internalType": "string",
          "name": "name",
          "type": "string"
        },
        {
          "indexed": false,
          "internalType": "address",
          "name": "provider",
          "type": "address"
        }
      ],
      "name": "ServiceListed",
      "type": "event"
    },
    {
      "anonymous": false,
      "inputs": [
        {
          "indexed": false,
          "internalType": "uint256",
          "name": "serviceId",
          "type": "uint256"
        },
        {
          "indexed": false,
          "internalType": "uint256",
          "name": "rating",
          "type": "uint256"
        }
      ],
      "name": "ServiceRated",
      "type": "event"
    },
    {
      "anonymous": false,
      "inputs": [
        {
          "indexed": false,
          "internalType": "uint256",
          "name": "serviceId",
          "type": "uint256"
        }
      ],
      "name": "ServiceVerified",
      "type": "event"
    },
    {
      "inputs": [],
      "name": "serviceCount",
      "outputs": [
        {
          "internalType": "uint256",
          "name": "",
          "type": "uint256"
        }
      ],
      "stateMutability": "view",
      "type": "function",
      "constant": true
    },
    {
      "inputs": [
        {
          "internalType": "uint256",
          "name": "",
          "type": "uint256"
        }
      ],
      "name": "services",
      "outputs": [
        {
          "internalType": "string",
          "name": "name",
          "type": "string"
        },
        {
          "internalType": "address",
          "name": "provider",
          "type": "address"
        },
        {
          "internalType": "bool",
          "name": "verified",
          "type": "bool"
        },
        {
          "internalType": "uint256",
          "name": "rating",
          "type": "uint256"
        },
        {
          "internalType": "uint256",
          "name": "ratingsCount",
          "type": "uint256"
        }
      ],
      "stateMutability": "view",
      "type": "function",
      "constant": true
    },
    {
      "inputs": [
        {
          "internalType": "string",
          "name": "name",
          "type": "string"
        }
      ],
      "name": "listService",
      "outputs": [],
      "stateMutability": "nonpayable",
      "type": "function"
    },
    {
      "inputs": [
        {
          "internalType": "uint256",
          "name": "serviceId",
          "type": "uint256"
        }
      ],
      "name": "verifyService",
      "outputs": [],
      "stateMutability": "nonpayable",
      "type": "function"
    },
    {
      "inputs": [
        {
          "internalType": "uint256",
          "name": "serviceId",
          "type": "uint256"
        },
        {
          "internalType": "uint256",
          "name": "rating",
          "type": "uint256"
        }
      ],
      "name": "rateService",
      "outputs": [],
      "stateMutability": "nonpayable",
      "type": "function"
    },
    {
      "inputs": [
        {
          "internalType": "uint256",
          "name": "serviceId",
          "type": "uint256"
        }
      ],
      "name": "getService",
      "outputs": [
        {
          "internalType": "string",
          "name": "name",
          "type": "string"
        },
        {
          "internalType": "address",
          "name": "provider",
          "type": "address"
        },
        {
          "internalType": "bool",
          "name": "verified",
          "type": "bool"
        },
        {
          "internalType": "uint256",
          "name": "rating",
          "type": "uint256"
        }
      ],
      "stateMutability": "view",
      "type": "function",
      "constant": true
    }
  ],
  "bytecode": "0x608060405234801561001057600080fd5b506109c0806100206000396000f3fe608060405234801561001057600080fd5b506004361061007e577c010000000000000000000000000000000000000000000000000000000060003504630623752681146100835780635fdffd331461009f578063ad105498146100b4578063c22c4f43146100c7578063e55b3e8d146100eb578063ef0e239b146100fe575b600080fd5b61008c60015481565b6040519081526020015b60405180910390f35b6100b26100ad3660046105bc565b610121565b005b6100b26100c23660046105de565b61023c565b6100da6100d53660046105de565b610324565b60405161009695949392919061063d565b6100b26100f9366004610696565b6103ea565b61011161010c3660046105de565b6104e5565b6040516100969493929190610747565b6000828152602081905260409020600181015460a060020a900460ff166101a9576040517f08c379a000000000000000000000000000000000000000000000000000000000815260206004820152601460248201527f53657276696365206e6f7420766572696669656400000000000000000000000060448201526064015b60405180910390fd5b60038101546101b9906001610798565b82826003015483600201546101ce91906107b1565b6101d89190610798565b6101e291906107c8565b60028201556003810180549060006101f9836107ed565b909155505060408051848152602081018490527f954c7a994052d96857323bb986de6a2171728ad2ded2ab2b630720280b21430d910160405180910390a1505050565b60008181526020819052604090206001810154600160a060020a031633146102c0576040517f08c379a000000000000000000000000000000000000000000000000000000000815260206004820181905260248201527f4f6e6c7920736572766963652070726f76696465722063616e2076657269667960448201526064016101a0565b60018101805474ff0000000000000000000000000000000000000000191660a060020a1790556040517fbad7c58d7d2f32149969661da09f3717e1d0bf74a823f79bf486657eb34de00e906103189084815260200190565b60405180910390a15050565b60006020819052908152604090208054819061033f90610806565b80601f016020809104026020016040519081016040528092919081815260200182805461036b90610806565b80156103b85780601f1061038d576101008083540402835291602001916103b8565b820191906000526020600020905b81548152906001019060200180831161039b57829003601f168201915b50505050600183015460028401546003909401549293600160a060020a0382169360a060020a90920460ff1692509085565b6040805160a081018252828152336020808301919091526000828401819052606083018190526080830181905260015481529081905291909120815181906104329082610892565b50602082015160018083018054604080870151151560a060020a0274ffffffffffffffffffffffffffffffffffffffffff19909216600160a060020a039095169490941717905560608401516002840155608090930151600390920191909155905490517f4211d6f0f79f3dee4c94c72644251cfae577f0dbcdf05c9b67dfb41d5d7b0ee1916104c59184903390610958565b60405180910390a1600180549060006104dd836107ed565b919050555050565b6000818152602081905260408120600181015460028201548254606094938493849391928392600160a060020a0383169260a060020a900460ff1691849061052c90610806565b80601f016020809104026020016040519081016040528092919081815260200182805461055890610806565b80156105a55780601f1061057a576101008083540402835291602001916105a5565b820191906000526020600020905b81548152906001019060200180831161058857829003601f168201915b505050505093509450945094509450509193509193565b600080604083850312156105cf57600080fd5b50508035926020909101359150565b6000602082840312156105f057600080fd5b5035919050565b6000815180845260005b8181101561061d57602081850181015186830182015201610601565b506000602082860101526020601f19601f83011685010191505092915050565b60a08152600061065060a08301886105f7565b600160a060020a039690961660208301525092151560408401526060830191909152608090910152919050565b60e060020a634e487b7102600052604160045260246000fd5b6000602082840312156106a857600080fd5b813567ffffffffffffffff808211156106c057600080fd5b818401915084601f8301126106d457600080fd5b8135818111156106e6576106e661067d565b604051601f8201601f19908116603f0116810190838211818310171561070e5761070e61067d565b8160405282815287602084870101111561072757600080fd5b826020860160208301376000928101602001929092525095945050505050565b60808152600061075a60808301876105f7565b600160a060020a03959095166020830152509115156040830152606090910152919050565b60e060020a634e487b7102600052601160045260246000fd5b808201808211156107ab576107ab61077f565b92915050565b80820281158282048414176107ab576107ab61077f565b6000826107e85760e060020a634e487b7102600052601260045260246000fd5b500490565b6000600182016107ff576107ff61077f565b5060010190565b60028104600182168061081a57607f821691505b60208210810361083d5760e060020a634e487b7102600052602260045260246000fd5b50919050565b601f82111561088d576000818152602081206020601f8601048101602086101561086a5750805b6020601f860104820191505b8181101561088957828155600101610876565b5050505b505050565b815167ffffffffffffffff8111156108ac576108ac61067d565b6108c0816108ba8454610806565b84610843565b602080601f8311600181146108f957600084156108dd5750858301515b60028086026008870290910a6000190419821617865550610889565b600085815260208120601f198616915b8281101561092857888601518255948401946001909101908401610909565b508582101561094857878501516008601f88160260020a60001904191681555b5050505050600202600101905550565b83815260606020820152600061097160608301856105f7565b9050600160a060020a038316604083015294935050505056fea264697066735822122062e719b36d4f63cee9246dedee8e9fbcf4582edd957dd36a541002ec16ba48f964736f6c63430008140033",
  "immutableReferences": {},
  "source": "// SPDX-License-Identifier: MIT\r\npragma solidity ^0.8.0;\r\n\r\ncontract ServiceManagement {\r\n    struct Service {\r\n        string name;\r\n        address provider;\r\n        bool verified;\r\n        uint256 rating;\r\n        uint256 ratingsCount;\r\n    }\r\n\r\n    mapping(uint256 => Service) public services;\r\n    uint256 public serviceCount;\r\n\r\n    event ServiceListed(uint256 serviceId, string name, address provider);\r\n    event ServiceVerified(uint256 serviceId);\r\n    event ServiceRated(uint256 serviceId, uint256 rating);\r\n\r\n    function listService(string memory name) public {\r\n        services[serviceCount] = Service(name, msg.sender, false, 0, 0);\r\n        emit ServiceListed(serviceCount, name, msg.sender);\r\n        serviceCount++;\r\n    }\r\n\r\n    function verifyService(uint256 serviceId) public {\r\n        Service storage service = services[serviceId];\r\n        require(service.provider == msg.sender, \"Only service provider can verify\");\r\n        service.verified = true;\r\n        emit ServiceVerified(serviceId);\r\n    }\r\n\r\n    function rateService(uint256 serviceId, uint256 rating) public {\r\n        Service storage service = services[serviceId];\r\n        require(service.verified, \"Service not verified\");\r\n        service.rating = (service.rating * service.ratingsCount + rating) / (service.ratingsCount + 1);\r\n        service.ratingsCount++;\r\n        emit ServiceRated(serviceId, rating);\r\n    }\r\n\r\n    function getService(uint256 serviceId) public view returns (string memory name, address provider, bool verified, uint256 rating) {\r\n        Service storage service = services[serviceId];\r\n        return (service.name, service.provider, service.verified, service.rating);\r\n    }\r\n}\r\n",
  "sourcePath": "D:\\SRM\\Hackindia 2k24\\Hackindia2024\\contracts\\ServiceManagement.sol",
  "compiler": {
    "name": "solc",
    "version": "0.8.20+commit.a1b79de6.Emscripten.clang"
  },
  "schemaVersion": "3.4.16",
  "updatedAt": "2024-08-07T05:39:53.411Z",
  "networkType": "ethereum",
  "devdoc": {
    "kind": "dev",
    "methods": {},
    "version": 1
  },
  "userdoc": {
    "kind": "user",
    "methods": {},
    "version": 1
  }
}