{
  "contractName": "TimeCredit",
  "abi": [
    {
      "inputs": [
        {
          "internalType": "address",
          "name": "",
          "type": "address"
        }
      ],
      "name": "balances",
      "outputs": [
        {
          "internalType": "uint256",
          "name": "",
          "type": "uint256"
        }
      ],
      "stateMutability": "view",
      "type": "function"
    },
    {
      "inputs": [
        {
          "internalType": "address",
          "name": "to",
          "type": "address"
        },
        {
          "internalType": "uint256",
          "name": "amount",
          "type": "uint256"
        }
      ],
      "name": "mint",
      "outputs": [],
      "stateMutability": "nonpayable",
      "type": "function"
    },
    {
      "inputs": [
        {
          "internalType": "address",
          "name": "to",
          "type": "address"
        },
        {
          "internalType": "uint256",
          "name": "amount",
          "type": "uint256"
        }
      ],
      "name": "transfer",
      "outputs": [],
      "stateMutability": "nonpayable",
      "type": "function"
    },
    {
      "inputs": [
        {
          "internalType": "address",
          "name": "account",
          "type": "address"
        }
      ],
      "name": "balanceOf",
      "outputs": [
        {
          "internalType": "uint256",
          "name": "",
          "type": "uint256"
        }
      ],
      "stateMutability": "view",
      "type": "function"
    }
  ],
  "bytecode": "0x608060405234801561001057600080fd5b50610554806100206000396000f3fe608060405234801561001057600080fd5b506004361061004c5760003560e01c806327e235e31461005157806340c10f191461008157806370a082311461009d578063a9059cbb146100cd575b600080fd5b61006b600480360381019061006691906102fb565b6100e9565b60405161007891906103cf565b60405180910390f35b61009b60048036038101906100969190610324565b610101565b005b6100b760048036038101906100b291906102fb565b61015a565b6040516100c491906103cf565b60405180910390f35b6100e760048036038101906100e29190610324565b6101a2565b005b60006020528060005260406000206000915090505481565b806000808473ffffffffffffffffffffffffffffffffffffffff1673ffffffffffffffffffffffffffffffffffffffff168152602001908152602001600020600082825461014f91906103fb565b925050819055505050565b60008060008373ffffffffffffffffffffffffffffffffffffffff1673ffffffffffffffffffffffffffffffffffffffff168152602001908152602001600020549050919050565b806000803373ffffffffffffffffffffffffffffffffffffffff1673ffffffffffffffffffffffffffffffffffffffff168152602001908152602001600020541015610223576040517f08c379a000000000000000000000000000000000000000000000000000000000815260040161021a906103af565b60405180910390fd5b806000803373ffffffffffffffffffffffffffffffffffffffff1673ffffffffffffffffffffffffffffffffffffffff16815260200190815260200160002060008282546102719190610451565b92505081905550806000808473ffffffffffffffffffffffffffffffffffffffff1673ffffffffffffffffffffffffffffffffffffffff16815260200190815260200160002060008282546102c691906103fb565b925050819055505050565b6000813590506102e0816104f0565b92915050565b6000813590506102f581610507565b92915050565b60006020828403121561030d57600080fd5b600061031b848285016102d1565b91505092915050565b6000806040838503121561033757600080fd5b6000610345858286016102d1565b9250506020610356858286016102e6565b9150509250929050565b600061036d6012836103ea565b91507f4e6f7420656e6f7567682062616c616e636500000000000000000000000000006000830152602082019050919050565b6103a9816104b7565b82525050565b600060208201905081810360008301526103c881610360565b9050919050565b60006020820190506103e460008301846103a0565b92915050565b600082825260208201905092915050565b6000610406826104b7565b9150610411836104b7565b9250827fffffffffffffffffffffffffffffffffffffffffffffffffffffffffffffffff03821115610446576104456104c1565b5b828201905092915050565b600061045c826104b7565b9150610467836104b7565b92508282101561047a576104796104c1565b5b828203905092915050565b600061049082610497565b9050919050565b600073ffffffffffffffffffffffffffffffffffffffff82169050919050565b6000819050919050565b7f4e487b7100000000000000000000000000000000000000000000000000000000600052601160045260246000fd5b6104f981610485565b811461050457600080fd5b50565b610510816104b7565b811461051b57600080fd5b5056fea26469706673582212209d1078572961d92da1e2a596de03fb42c99e45737da40ab90390a69544a8022664736f6c63430008000033",
  "immutableReferences": {},
  "source": "// SPDX-License-Identifier: UNLICENSED\r\npragma solidity ^0.8.0;\r\n\r\ncontract TimeCredit {\r\n    mapping(address => uint256) public balances;\r\n\r\n    function mint(address to, uint256 amount) public {\r\n        balances[to] += amount;\r\n    }\r\n\r\n    function transfer(address to, uint256 amount) public {\r\n        require(balances[msg.sender] >= amount, \"Not enough balance\");\r\n        balances[msg.sender] -= amount;\r\n        balances[to] += amount;\r\n    }\r\n\r\n    function balanceOf(address account) public view returns (uint256) {\r\n        return balances[account];\r\n    }\r\n}",
  "sourcePath": "D:\\SRM\\Hackindia 2k24\\Hackindia2024\\contracts\\TimeCredit.sol",
  "compiler": {
    "name": "solc",
    "version": "0.8.0+commit.c7dfd78e.Emscripten.clang"
  },
  "schemaVersion": "3.4.16",
  "updatedAt": "2024-08-06T08:58:14.205Z",
  "devdoc": {
    "kind": "dev",
    "methods": {},
    "version": 1
  },
  "userdoc": {
    "kind": "user",
    "methods": {},
    "version": 1
  }
}