{
  "contractName": "UserManagement",
  "abi": [
    {
      "inputs": [
        {
          "internalType": "uint256",
          "name": "",
          "type": "uint256"
        }
      ],
      "name": "userAddresses",
      "outputs": [
        {
          "internalType": "address",
          "name": "",
          "type": "address"
        }
      ],
      "stateMutability": "view",
      "type": "function",
      "constant": true
    },
    {
      "inputs": [
        {
          "internalType": "address",
          "name": "",
          "type": "address"
        }
      ],
      "name": "users",
      "outputs": [
        {
          "internalType": "string",
          "name": "email",
          "type": "string"
        },
        {
          "internalType": "address",
          "name": "userAddress",
          "type": "address"
        }
      ],
      "stateMutability": "view",
      "type": "function",
      "constant": true
    },
    {
      "inputs": [
        {
          "internalType": "string",
          "name": "email",
          "type": "string"
        }
      ],
      "name": "registerUser",
      "outputs": [],
      "stateMutability": "nonpayable",
      "type": "function"
    },
    {
      "inputs": [
        {
          "internalType": "address",
          "name": "userAddress",
          "type": "address"
        }
      ],
      "name": "getUser",
      "outputs": [
        {
          "internalType": "string",
          "name": "email",
          "type": "string"
        }
      ],
      "stateMutability": "view",
      "type": "function",
      "constant": true
    },
    {
      "inputs": [],
      "name": "getAllUsers",
      "outputs": [
        {
          "internalType": "address[]",
          "name": "",
          "type": "address[]"
        }
      ],
      "stateMutability": "view",
      "type": "function",
      "constant": true
    }
  ],
  "bytecode": "0x608060405234801561001057600080fd5b50610848806100206000396000f3fe608060405234801561001057600080fd5b5060043610610073577c01000000000000000000000000000000000000000000000000000000006000350463502c9bd581146100785780636f77926b146100a8578063704f1b94146100c8578063a87430ba146100dd578063e2842d79146100fe575b600080fd5b61008b6100863660046104b0565b610113565b604051600160a060020a0390911681526020015b60405180910390f35b6100bb6100b63660046104c9565b61013d565b60405161009f919061053f565b6100db6100d6366004610581565b61027c565b005b6100f06100eb3660046104c9565b6103a1565b60405161009f929190610632565b61010661044e565b60405161009f919061065d565b6001818154811061012357600080fd5b600091825260209091200154600160a060020a0316905081565b600160a060020a0381166000908152602081905260409020805460609190610164906106aa565b90506000036101d4576040517f08c379a000000000000000000000000000000000000000000000000000000000815260206004820152601360248201527f55736572206e6f7420726567697374657265640000000000000000000000000060448201526064015b60405180910390fd5b600160a060020a038216600090815260208190526040902080546101f7906106aa565b80601f0160208091040260200160405190810160405280929190818152602001828054610223906106aa565b80156102705780601f1061024557610100808354040283529160200191610270565b820191906000526020600020905b81548152906001019060200180831161025357829003601f168201915b50505050509050919050565b3360009081526020819052604090208054610296906106aa565b1590506102ff576040517f08c379a000000000000000000000000000000000000000000000000000000000815260206004820152601760248201527f5573657220616c7265616479207265676973746572656400000000000000000060448201526064016101cb565b6040805180820182528281523360208083018290526000918252819052919091208151819061032e908261074c565b506020919091015160019182018054600160a060020a0390921673ffffffffffffffffffffffffffffffffffffffff19928316179055815480830183556000929092527fb10e2d527612073b26eecdfd717e6a320cf44b4afac2b0732d9fcbe2b7fa0cf690910180549091163317905550565b6000602081905290815260409020805481906103bc906106aa565b80601f01602080910402602001604051908101604052809291908181526020018280546103e8906106aa565b80156104355780601f1061040a57610100808354040283529160200191610435565b820191906000526020600020905b81548152906001019060200180831161041857829003601f168201915b50505060019093015491925050600160a060020a031682565b606060018054806020026020016040519081016040528092919081815260200182805480156104a657602002820191906000526020600020905b8154600160a060020a03168152600190910190602001808311610488575b5050505050905090565b6000602082840312156104c257600080fd5b5035919050565b6000602082840312156104db57600080fd5b8135600160a060020a03811681146104f257600080fd5b9392505050565b6000815180845260005b8181101561051f57602081850181015186830182015201610503565b506000602082860101526020601f19601f83011685010191505092915050565b6020815260006104f260208301846104f9565b7f4e487b7100000000000000000000000000000000000000000000000000000000600052604160045260246000fd5b60006020828403121561059357600080fd5b813567ffffffffffffffff808211156105ab57600080fd5b818401915084601f8301126105bf57600080fd5b8135818111156105d1576105d1610552565b604051601f8201601f19908116603f011681019083821181831017156105f9576105f9610552565b8160405282815287602084870101111561061257600080fd5b826020860160208301376000928101602001929092525095945050505050565b60408152600061064560408301856104f9565b9050600160a060020a03831660208301529392505050565b6020808252825182820181905260009190848201906040850190845b8181101561069e578351600160a060020a031683529284019291840191600101610679565b50909695505050505050565b6002810460018216806106be57607f821691505b6020821081036106f7577f4e487b7100000000000000000000000000000000000000000000000000000000600052602260045260246000fd5b50919050565b601f821115610747576000818152602081206020601f860104810160208610156107245750805b6020601f860104820191505b8181101561074357828155600101610730565b5050505b505050565b815167ffffffffffffffff81111561076657610766610552565b61077a8161077484546106aa565b846106fd565b602080601f8311600181146107b357600084156107975750858301515b60028086026008870290910a6000190419821617865550610743565b600085815260208120601f198616915b828110156107e2578886015182559484019460019091019084016107c3565b508582101561080257878501516008601f88160260020a60001904191681555b505050505060020260010190555056fea2646970667358221220564e3f9681d14823caa2d2f3cc6d511972daf32137e28478e30ce3e0f43f615d64736f6c63430008140033",
  "immutableReferences": {},
  "source": "// SPDX-License-Identifier: MIT\r\npragma solidity ^0.8.0;\r\n\r\ncontract UserManagement {\r\n    struct User {\r\n        string email;\r\n        address userAddress;\r\n    }\r\n\r\n    mapping(address => User) public users;\r\n    address[] public userAddresses;\r\n\r\n    function registerUser(string memory email) public {\r\n        require(bytes(users[msg.sender].email).length == 0, \"User already registered\");\r\n        users[msg.sender] = User(email, msg.sender);\r\n        userAddresses.push(msg.sender);\r\n    }\r\n\r\n    function getUser(address userAddress) public view returns (string memory email) {\r\n        require(bytes(users[userAddress].email).length != 0, \"User not registered\");\r\n        return users[userAddress].email;\r\n    }\r\n\r\n    function getAllUsers() public view returns (address[] memory) {\r\n        return userAddresses;\r\n    }\r\n}\r\n",
  "sourcePath": "D:\\SRM\\Hackindia 2k24\\Hackindia2024\\contracts\\UserManagement.sol",
  "compiler": {
    "name": "solc",
    "version": "0.8.20+commit.a1b79de6.Emscripten.clang"
  },
  "schemaVersion": "3.4.16",
  "updatedAt": "2024-08-06T20:58:24.035Z",
  "networkType": "ethereum",
  "devdoc": {
    "kind": "dev",
    "methods": {},
    "version": 1
  },
  "userdoc": {
    "kind": "user",
    "methods": {},
    "version": 1
  }
}